:100000000C94DD030C9424040C9424040C94240418
:100010000C9424040C9424040C9424040C942404C0
:100020000C9424040C9424040C94A5290C94792A8F
:100030000C9438240C9424040C9424040C9424046C
:100040000C9424040C9424040C9424040C94240490
:100050000C9424040C948F240C9424040C942404F5
:100060000C9424040C9424040C9424040C94240470
:100070000C9424040C9424040C9424040C94240460
:100080000C94B20A0C9424040C9424040C942404BC
:100090000C9424040C9424040C9424040C94240440
:1000A0000C9424040C9424040C94240428292A2B52
:1000B0002C2D2E2F3031323334FF37FF20212223D5
:1000C0002425262738393A3B3C3D3D3E18191A1B5A
:1000D0001C1D1E1F404142434445FF461011121390
:1000E0001415161748494A4B4CFFFF4E08FF0A0BE0
:1000F0000C0D0E0F50515253545CFFFF000102FFD4
:10010000FFFF03FFFFFF58595A5BFF5D61FF5DF47E
:1001100059CB4758444F444F444F444F69FFFFFF6A
:1001200064D160AC5B8754664C45433078FF76E120
:1001300074B871916D6E654A56253E1086FF87E949
:1001400089C28B9C8E789451A12BBB0E93FF96FE97
:1001500099D89DB5A290A86CB04CB9329FFFA3FE70
:10016000A6DCAAB9AF97B473B95CBE53C458CA71C0
:10017000CF8FD3B2D7D3FFFFFFFFDCFFC32ECC441A
:10018000D564DB86E1ABE6E2EBFFFFFFD822E84770
:10019000EF6DF391F5B8F7E9F9FFFFFF252C185241
:1001A00012750E9C0E9CFFFF08FFFFFF3A34324B86
:1001B0002A6D23912391FFFFFFFFFFFF317B2AAEC2
:1001C00026E623FF1AFF20FFFFFFFFFF033D163D3A
:1001D000273D5E3D663D663D663D663D0932FFFF5B
:1001E000213230323F324D325C326B3205261926D5
:1001F000292638264626542663267126041B161BFC
:10020000251B341B421B511B601B6E1B000F0F0F65
:100210001E0F2C0F3B0F4A0F580F670F00001300E3
:10022000210030003F00510060006D007C008E0016
:100230009D00AD00BB00FFFFFFFFCE00750F840FD8
:10024000930FA10FB00FC60FE00FFFFF7C1B8B1B9E
:100250009A1BA81BB71BCA1BE01BFFFF80268F261B
:100260009D26AC26C426FFFFE026FFFF79328732A9
:100270009632A532B932FFFFFFFFFFFF963DAD3D3D
:10028000C340D240D235E040FFFFFFFF29003A00D3
:100290003B003C003D003E003F004000410042006A
:1002A00043004400450000004600000035001E00E9
:1002B0001F0020002100220023002400250026002A
:1002C00027002D002E002A002A004D002B001400CC
:1002D0001A000800150017001C0018000C0012007E
:1002E00013002F003000310000004E0039000400E0
:1002F0001600070009000A000B000D000E000F0099
:10030000330034002800000000004C00E100000031
:100310001D001B000600190005001100100036002A
:1003200037003800E500520000000000E000E30064
:10033000E2000000000000002C00000000000000AF
:10034000E60001515000510000004F000100010083
:100350000100010001000100010001000100010095
:100360000100010001000000010000000100010087
:100370000100010001000100010001000100010075
:100380000100010001000100010001000100010065
:1003900001000100005C01000100010001000100FA
:1003A0000100010001000100000001000100A9009E
:1003B0000100010001000100010001000100010035
:1003C0000100010001000000000001000100000028
:1003D000AA000100B20001000100010001000100BB
:1003E0000100010001004B000000000001000100BD
:1003F00001000000000000000100000000000000FB
:10040000010001004A004E0000004D000100010003
:1004100001000100010001000100010001000100D4
:1004200001000100010000000100000001000100C6
:1004300001000100010001000100010001000100B4
:1004400001000100010001000100010001000100A4
:100450000100010001000100010001000100010094
:100460000100010001000100000001000100010085
:100470000100010001000100010001000100010074
:100480000100010001000000000001000100000067
:100490000100010001000100010001000100010054
:1004A0000100010001000100000000000100010046
:1004B000010000000000000001000000000000003A
:1004C0000100010001000100000001000100010025
:1004D0000100010001000100010001000100010014
:1004E0000100010001000000010000000100010006
:1004F00001000100010001000100010001000100F4
:1005000001000100010001000100010001000100E3
:1005100001000100010001000100010001000100D3
:1005200001000100010001000000010001000100C4
:1005300001000100010001000100010001000100B3
:1005400001000100010000000000010001000000A6
:100550000100010001000100010001000100010093
:100560000100010001000100000000000100010085
:100570000100000000000000010000000000000079
:100580000100010001000100000001000000000066
:10059000000000002A2B28000000000000000000DE
:1005A0000000000000000029000000002C1E342084
:1005B000212224342627252E362D3738271E1F20AA
:1005C0002122232425263333362E37381F040506EF
:1005D0000708090A0B0C0D0E0F1011121314151633
:1005E0001718191A1B1C1D2F3130232D3504050631
:1005F0000708090A0B0C0D0E0F1011121314151613
:100600001718191A1B1C1D2F3130354C0000000023
:1006100000000000000000000000000000000000DA
:1006200000000000000000000000000000000000CA
:100630007E0F00D4FFFFFFC700000078240377007F
:1006400069006C00620061002E00740065006300A8
:100650006800200057005400370035002D0043008B
:1006600000001603770069006C00620061002E0034
:1006700074006500630068000000040309040902B7
:100680005B00030100A0FA0904000001030101005E
:100690000921110100012240000705810308000A19
:1006A00009040100020300000009211101000122D8
:1006B0002200070582032000010705030320000133
:1006C00009040200010300000009211101000122B8
:1006D0006D000705840320000A12011001000000CC
:1006E0000882655C070100010200010660FF0961E4
:1006F000A1010962150026FF0095207508810209F5
:1007000063150026FF00952075089102C0050109B8
:1007100080A101850319012AB700150126B70095AC
:100720000175108100C0050C0901A10185041901A2
:100730002AA002150126A002950175108100C005AE
:10074000010906A1018505050719E029E71500251E
:10075000019508750181020507190029EF1500258B
:100760000195F075018102050819012905950575A6
:10077000019102950175039101C005010906A101CE
:10078000050719E029E71500250195087501810283
:100790009501750881010507190029FF150026FF3D
:1007A000009506750881000508190129059505754C
:1007B000019102950175039101C011241FBECFEF75
:1007C000DAE0DEBFCDBF04B603FE27C0809103058B
:1007D00090910405A0910505B09106058730904BD6
:1007E000A740B04BD1F4109203051092040510926B
:1007F00005051092060514BE84B7877F84BF0FB627
:10080000F894A895809160008861809360001092B0
:1008100060000FBEE0E0F8E3099511E0A0E0B1E070
:10082000EEE6FBE502C005900D92A43BB107D9F7B7
:1008300025E0A4EBB1E001C01D92A330B207E1F7BF
:100840000E9465260C94712D0C940000E4E6F4E0FF
:100850006083418324E630E042E050E0BF01880F2E
:100860000C94AD05EF92FF921F93CF93DF937B0122
:10087000182F110FD0E0C0E0C0936404D701AC0F73
:10088000BD1FE5E6F4E08D91819384E0E537F8073C
:10089000D1F724E630E041E150E064E674E0812FD6
:1008A0000E94AD056096C03CD10531F7DF91CF9134
:1008B0001F91FF90EF900895CF93DF93C82F45ECE1
:1008C0006EEF0E94260440E06DEF8C2F0E942604FC
:1008D000D0E040E06D2F8C2F0E942604DF5FD831DE
:1008E000C1F745EC6EEF8C2F0E94260441E06DEFBE
:1008F0008C2F0E942604D0E040E06D2F8C2F0E94A8
:100900002604DF5FD03CC1F745EC6EEF8C2F0E94D0
:10091000260443E06DEF8C2F0E9426044FEF61E028
:100920008C2F0E94260441E060E08C2F0E94260458
:100930008FE39CE90197F1F700C00000DF91CF91B0
:1009400008958036910548F4880FE82FF0E0EC51C7
:10095000FD4F608381E08093E70108951F93CF935B
:10096000DF93182FD0E0C0E0612FCE010E94A104D8
:100970002196C036D105C1F7DF91CF911F9108951F
:10098000880FE82FE695E695E695F0E0E954FE4FEE
:100990002081382F377081E090E001C0880F3A95B0
:1009A000EAF7662331F0822B808381E08093B601E1
:1009B000089580958223F8CFCF93C82F8091E701C7
:1009C000882379F045EC6EEF8C2F0E94260441E0DD
:1009D0006DEF8C2F0E94260464EE72E08C2F0E9433
:1009E00032041092E701CF9108950F931F93CF9394
:1009F000DF93D82F8091B6018823C9F045EC6EEFC4
:100A00008D2F0E94260440E06DEF8D2F0E9426045A
:100A100007EB11E0C0E0F80141918F016C2F8D2FA1
:100A20000E942604CF5FC831B1F71092B601DF9162
:100A3000CF911F910F9108951092B9008CE080938F
:100A4000B8000895EF92FF920F931F93CF93DF9317
:100A5000182FEB011092BC0084EA8093BC000E9426
:100A600068247C018091BC0087FF27C08091B90079
:100A7000887F883029F08091B900887F8031D9F54E
:100A80001093BB0084E88093BC000E9468248C0112
:100A90008091BC0087FF24C02091B900287F90E09E
:100AA00080E02831B1F081E090E0203411F490E052
:100AB00080E09195819591090CC0CF3FDC0791F2C0
:100AC0000E9468248E199F098C179D0758F28EEF9B
:100AD0009FEFDF91CF911F910F91FF90EF900895BD
:100AE000CF3FDC07A9F20E946824801B910B8C1772
:100AF0009D0770F2ECCF8FEF9FEFEBCF0F931F931B
:100B0000CF93DF93EB018093BB0084E88093BC001C
:100B10000E9468248C018091BC0087FF11C0209145
:100B2000B900287F81E090E0283211F490E080E065
:100B3000919581959109DF91CF911F910F91089522
:100B4000CF3FDC0741F30E946824801B910B8C1778
:100B50009D0708F38EEF9FEFEECFCF92DF92EF92DB
:100B6000FF920F931F93CF93DF936B018A0179015B
:100B7000B9010E942205E6010C0D1D1DC017D10709
:100B800061F424E92093BC00DF91CF911F910F9174
:100B9000FF90EF90DF90CF90089597FDF2CFB701CF
:100BA00089910E947E05EACFE82FF0E0EE0FFF1F4B
:100BB000E453FE4F8491DB018C933196E4911196BE
:100BC000EC930895E82FF0E0EE0FFF1FE45FFE4F77
:100BD0008491DB018C933196E4911196EC93089506
:100BE000863020F08FEFDA018C9308956031D0F7D2
:100BF000B0E18B9FF0011124E60FF11DE455FF4F8A
:100C0000E491DA01EC930895CF930E941C0580E5EE
:100C10000E945C04C0E061E08C2F0E94C004CF5FA2
:100C2000C036C9F760E080E50E94F504E8E7F4E02B
:100C300088ED94E02FEF21938E179F07E1F7CF9176
:100C40000895CF93DF930F92CDB7DEB7AE014F5F1C
:100C50005F4F0E94F005E981F0E0E858FB4F1082F9
:100C60001092F0011092F1011092F2011092F30132
:100C70000F90DF91CF9108958091EF0181110EC007
:100C800081E08093EF018DE0809391009FB7F8940D
:100C900023E020939900809398009FBF0895E1E797
:100CA000F0E080818260808308958093FB01089545
:100CB0008093FA01089580E00C94AE0480910F01B6
:100CC0000C94AE04FF920F931F93CF93DF9308E72A
:100CD00014E0D0E0C0E085E0F82EF80141918F01EA
:100CE000809111018F9DC00111240396489F9001AE
:100CF000499F300D112460910F01862F90E0281735
:100D0000390708F4C901681BCE010E94A10421968D
:100D1000C036D10511F7DF91CF911F910F91FF9050
:100D20000895CF93DF9380E00E94AE04D0E0C0E04E
:100D300060910F01CE010E94A1042196CA30D10515
:100D4000B9F760910F0180E190E00E94A1046091E9
:100D50000F0188E190E00E94A10460910F0180E200
:100D600090E00E94A104C8E2D0E060910F01CE01A2
:100D70000E94A1042196C833D105B9F760910F01F3
:100D80008DE390E00E94A10460910F018EE390E05A
:100D90000E94A10460910F0185E490E00E94A104EB
:100DA00060910F0186E490E00E94A10460910F0120
:100DB0008CE490E00E94A10460910F018EE490E029
:100DC0000E94A104C4E5D0E060910F01CE010E9411
:100DD000A1042196C036D105B9F7DF91CF910895CE
:100DE000EF92FF920F931F93CF93DF9300D000D029
:100DF00000D00F92CDB7DEB78E010F5F1F4FF12CE1
:100E0000F8011082E12CAE01495F5F4F6E2D8F2DEE
:100E10000E94F00580911101F4E08F9FC001112420
:100E20000696EF81F0E0E858FB4F2081289FA00153
:100E3000299F500D112480910F01282F30E0241795
:100E4000350748F0F8019081241B350B92171306E3
:100E500010F4841B8083E394F0E1EF12D4CFE12CF3
:100E6000AE01495F5F4F6E2D8F2D0E94F0058F817F
:100E7000F801608190E00E94A104E394F0E1EF1298
:100E8000EFCFF3940F5F1F4F26E0F212B9CF2796F2
:100E90000FB6F894DEBF0FBECDBFDF91CF911F918B
:100EA0000F91FF90EF9008957F928F929F92AF9253
:100EB000BF92CF92DF92EF92FF920F931F93CF9347
:100EC000DF93CDB7DEB767970FB6F894DEBF0FBEDE
:100ED000CDBF8E010F5E1F4F5E0187E1A80EB11CD2
:100EE000D801FE0131961192E017F107E1F71D924A
:100EF000AA15BB05B1F76801812C85E0782ECE01DB
:100F000001967C01912CA501692D882D0E94F00588
:100F100080911101879DC00111240696EF89F0E0B0
:100F2000E858FB4F2081289FA001299F500D1124D4
:100F300080910F01282F30E0B9014217530708F4C0
:100F4000BA01261B370BF60190819217130618F48D
:100F5000982F961B9083F70190819217130610F437
:100F6000861B80839394FFEFEF1AFF0A80E19812AB
:100F7000CACF83949FEFC91AD90AE6E08E12BFCF79
:100F8000E12CFE0131964F01F12CF40181914F01CA
:100F9000F801D080D81608F4D82EA5016F2D8E2D1B
:100FA0000E94F0058F896D2D90E00E94A104F394BA
:100FB000F0E1FF12EACFE3940F5F1F4F86E0E812E3
:100FC000E0CF67960FB6F894DEBF0FBECDBFDF91BE
:100FD000CF911F910F91FF90EF90DF90CF90BF9036
:100FE000AF909F908F907F900895209111018091F4
:100FF000F6019091F701A091F801B091F90104C0B8
:10100000880F991FAA1FBB1F2A95D2F7282F30E0FF
:10101000203831054CF4880F90910F01891708F49E
:10102000982F892F0C94AE048FEF90E0821B930BC6
:10103000F2CF2F923F924F925F926F927F928F9258
:101040009F92AF92BF92CF92DF92EF92FF920F9357
:101050001F93CF93DF9300D00F92CDB7DEB72091CF
:1010600011018091F6019091F701A091F801B091E2
:10107000F90104C0880F991FAA1FBB1F2A95D2F738
:101080008B83F12CE12C082F10E018012EE1221A9D
:10109000310828014EE1440E511C380150EE650E16
:1010A000711C68018FEFC80ED11C580120EEA21AE6
:1010B000B10848014FEF841A9108BE016F5F7F4F5E
:1010C0008E2D0E94D405898190E0821593050CF441
:1010D00057C0481659060CF453C060910F019C018B
:1010E000201B310B37FF03C0319521953109A90130
:1010F00033E0440F551F3A95E1F76417150609F0E0
:101100000CF43EC0220F220F220F621B5B81523E65
:10111000C8F18A159B059CF420910F018819990943
:10112000AC0193E0440F551F9A95E1F7241715067B
:1011300031F02CF0880F880F880F622F681BC701D1
:101140000E94A1045FEFE51AF50A80E6E816F104B3
:1011500009F0B3CF0F900F900F90DF91CF911F91B7
:101160000F91FF90EF90DF90CF90BF90AF909F9046
:101170008F907F906F905F904F903F902F90089549
:1011800060E0C4CF2B812E31D0F668167906BCF60C
:1011900020910F01A601481B590BCA01C2CF2F9203
:1011A0003F924F925F926F927F928F929F92AF92F7
:1011B000BF92CF92DF92EF92FF920F931F93CF9344
:1011C000DF9300D00F92CDB7DEB72091110180914F
:1011D000F6019091F701A091F801B091F90104C0D6
:1011E000880F991FAA1FBB1F2A95D2F78B83F12C5A
:1011F000E12C082F10E018012EE1221A31082801F5
:101200004EE1440E511C380150EE650E711C680110
:101210008FEFC80ED11C580120EEA21AB108480168
:101220004FEF841A9108BE016F5F7F4F8E2D0E9491
:10123000E205898190E0821593050CF457C04816A9
:1012400059060CF453C060910F019C01201B310B17
:1012500037FF03C0319521953109A90133E0440FCF
:10126000551F3A95E1F76417150609F00CF43EC0D6
:10127000220F220F220F621B5B81523EC8F18A159A
:101280009B059CF420910F0188199909AC0193E00A
:10129000440F551F9A95E1F72417150631F02CF0ED
:1012A000880F880F880F622F681BC7010E94A10456
:1012B0005FEFE51AF50A80E6E816F10409F0B3CF0E
:1012C0000F900F900F90DF91CF911F910F91FF9092
:1012D000EF90DF90CF90BF90AF909F908F907F90D6
:1012E0006F905F904F903F902F90089560E0C4CF33
:1012F0002B812E31D0F668167906BCF620910F01AD
:10130000A601481B590BCA01C2CF0F931F93CF935D
:10131000882321F01092F4011092F5018091F401DC
:101320009091110124E030E0291B31098217130646
:10133000C4F0C2E100E610E00E94CE2CB8010E9489
:101340003F2C8093F5019927FC01E858FB4F108250
:10135000C15091F71092F401CF911F910F910C940D
:1013600062068F5F8093F401F7CFCF93DF93D82F7E
:10137000C62F8E3F29F4862FDF91CF910C94AE04B7
:1013800090E00E94A104D33091F46C2F84E090E0AF
:101390000E94A1046C2F85E090E00E94A1046C2FB4
:1013A00086E090E00E94A104DF91CF910895D932A8
:1013B00089F46C2F8AE290E00E94A1046C2F8BE2EA
:1013C00090E00E94A1046C2F8CE290E0DF91CF911D
:1013D0000C94A104DD3271F46C2F8EE290E00E9437
:1013E000A1046C2F8FE290E00E94A1046C2F80E397
:1013F00090E0ECCFD133C1F66C2F82E390E00E94F5
:10140000A1046C2F83E390E00E94A1046C2F84E37D
:1014100090E0DCCFE0912001F0912101808181FBFF
:10142000992790F99093EE0185FB992790F9909375
:10143000ED01982F91709093EC0184FB992790F91E
:101440009093EB0182FB992790F99093EA0186FB38
:10145000882780F98093E9016091F0017091F10192
:101460008091F2019091F30163307105810591053E
:1014700030F46FEF809105010E94B50912C0683EFB
:1014800023E072078105910508F049C028E230E0A9
:1014900040E050E00E94532C6331710581059105B5
:1014A00040F780910C019091EE018F3F09F456C0F6
:1014B0002091FA0121FF47C091114EC09091ED019A
:1014C00091114AC06FEF0E94B50983E00E94F91F95
:1014D000882349F1809109018F3F19F06FEF0E9435
:1014E000B5098091EC01811104C08091EB01882342
:1014F00039F0809107018F3F19F06FEF0E94B50915
:101500008091EA01811104C08091E901882349F1A9
:10151000809108018F3F29F16FEF0C94B5096FEFAF
:1015200080910601A9CF82E00E94F91F882319F05B
:1015300080910A01D1CF81E00E94F91F882389F2AE
:1015400080910B01C9CF9111BDCF9091ED019923ED
:1015500019F08F3F09F0B6CF60E0B5CF9111FCCF05
:10156000F4CF08951F920F920FB60F9211240F938C
:101570001F932F933F934F935F936F937F938F931B
:101580009F93AF93BF93CF93EF93FF938091E80125
:101590008431B8F48F5F8093E801FF91EF91CF9190
:1015A000BF91AF919F918F917F916F915F914F917B
:1015B0003F912F911F910F910F900FBE0F901F9091
:1015C00018958091F6019091F701A091F801B091E2
:1015D000F9010196A11DB11D8093F6019093F701C9
:1015E000A093F801B093F9018091F0019091F1017D
:1015F000A091F201B091F3018F3F2FEF9207A20764
:10160000B20759F00196A11DB11D8093F00190938E
:10161000F101A093F201B093F301E8E7F4E08191C6
:101620008F3F21F0DF0111978F5F8C9384E0E83DBD
:10163000F807A9F78091FB01882321F080910D0123
:1016400080FD1FC080910E018823C9F020EB34E09B
:10165000829FA001839F500D1124052E000C660B64
:10166000770B81E00091F0011091F1012091F201DE
:101670003091F301401751076207730718F080E0BB
:1016800001C081E0C82FC170E091100180FDE0E051
:1016900081E0909104019E1301C080E0E093040179
:1016A000E150E93028F4F0E0ED58F24D0C94752C3F
:1016B0000E945B06C11171CF0E940A0A6ECF0E9480
:1016C0005E06F8CF0E94F507F5CF0E94CF08F2CF53
:1016D0000E941908EFCF0E946206ECCF0E94F0062C
:1016E000E9CF0E945407E6CF0E949106E3CF0E9403
:1016F0008509E0CFFC0180818930D9F028F487305A
:1017000041F0883091F008958A30B9F08B30C9F0FB
:10171000089591E08181811101C090E080910D01D7
:1017200090FB80F980930D010895818180930E01D3
:101730000895818180930F01089581818093100124
:1017400008958181809311010895FC018081893081
:1017500099F028F4873041F0883059F008958A30A4
:1017600071F08B3079F0089580910D018170818343
:10177000089580910E01FBCF80910F01F8CF8091E9
:101780001001F5CF80911101F2CF43E150E067E203
:1017900070E08DE091E00C94DE2C43E150E067E2D4
:1017A00070E08DE091E00C94FC2C60E080E50C94FE
:1017B000DC048091100190E001968B30910514F0CB
:1017C0008AE090E0809310010C94CD0B8091100181
:1017D0008150990B97FF02C090E080E08B3091051B
:1017E00014F08AE090E0809310010C94CD0B80916E
:1017F000110190E001968430910514F083E090E0AF
:10180000809311010C94CD0B809111018150990BA3
:1018100097FF02C090E080E08430910514F083E0EF
:1018200090E0809311010C94CD0B80910F0190E01A
:1018300008968F3F910519F014F08FEF90E0809398
:101840000F010C94CD0B80910F018850990B97FDDF
:1018500080E080930F010C94CD0B0F931F93CF93D7
:10186000DF938C01EB018A81882321F068818981D3
:101870000E94210602308FE5180749F168F401152E
:101880008FE51807B9F001301F45D9F081E0DF91ED
:10189000CF911F910F91089504308FE5180719F12A
:1018A000E0F005301F4591F78A81882381F30E947B
:1018B000040C05C08A81882351F30E94150C80E036
:1018C000E6CF8A81882319F30E94230CF8CF8A81FE
:1018D0008823E9F20E94D90BF2CF8A818823B9F2DA
:1018E0000E94E60BECCF8A81882389F20E94F70BD5
:1018F000E6CF0E944012882341F00E94C50B0E944F
:1019000004060E943C060C944F060E94CD0BF7CFB4
:101910000C9413110E94D50B0C9414110F931F9368
:10192000CF93DF93EC018B010E942D0CC0318FE52A
:10193000D80761F0C131EFE5DE07F1F0B801CE0163
:10194000DF91CF911F910F910C94E70CF8018281E8
:10195000882371F081E00E94192043E062E081E079
:101960000E94870D80E0DF91CF911F910F91089524
:1019700081E00E943A20F1CFF8018281882311F0A2
:1019800082E0E9CF82E0F5CFCF93C82F0E945806BE
:101990008C2FCF910C94D80E81E00C94550680E0EA
:1019A0000C945506FC01DC012D91CD01283031F05D
:1019B000293031F0273031F40C947A0B0C94A50BBC
:1019C0000C94CD0B8FEF8083089581E0089581E022
:1019D000089508950C94E90C1F93CF93DF9300D0E2
:1019E00000D00F92CDB7DEB749835A836B83309115
:1019F0001E0289819A8131111DC06623B9F022230C
:101A0000A9F00E940821182F682F89819A810E94CD
:101A1000B52069817A81812F0F900F900F900F90E0
:101A20000F90DF91CF911F910C944E140E94E120F2
:101A3000182FEFCF0E94082169817A81EDCFFC0138
:101A4000262F408151816281738184810C94EC0C3A
:101A5000CF93DF93EC0160E00E941F0DBE01DF9188
:101A6000CF910C94EA0C8F929F92AF92BF92CF923B
:101A7000DF92EF92FF920F931F936B017C0181E045
:101A800090E0A0E0B0E04C015D0104C0880C991C1E
:101A9000AA1CBB1C4A95D2F7B501A4014C015D01FB
:101AA00004C0880C991CAA1CBB1C2A95D2F7482993
:101AB00059296A297B2904C0880F991FAA1FBB1FB7
:101AC0000A95D2F78A019B010C211D212E213F216D
:101AD000041715072607370789F48C299D29AE2995
:101AE000BF29BC01CD011F910F91FF90EF90DF90B6
:101AF000CF90BF90AF909F908F90089580959095D4
:101B0000A095B0958C219D21AE21BF21EACF0F93E6
:101B1000382F262F60919302709194028091950244
:101B200090919602042F432F0E94330D0F910C9435
:101B3000D31F0E94EF100C94880C0C948A0C08950B
:101B40000E94FF1B0E949F0D2FEF84E39CE0215019
:101B500080409040E1F700C000000C94B3240F9344
:101B60001F93CF93DF938C0161E00E941F0DEC0166
:101B7000B8010E9496128823D9F1B801CE010E94C3
:101B80008E0C8823A9F1B801CE010E948315882309
:101B900079F1B801CE010E94D515882349F1B80129
:101BA000CE010E94F816882319F1F801828188235A
:101BB00061F0CA35FDE5DF0721F170F4C115ECE5F0
:101BC000DE07A1F0CE3DDC45C9F0C801DF91CF9121
:101BD0001F910F910C94E50CCB358DE5D807A1F042
:101BE000CC35DD4591F70E94AF21EFCF0E94A00DCB
:101BF00080E0DF91CF911F910F9108950E942823DB
:101C0000F7CF0E94B821E1CF0E94BB21DECFDF9247
:101C1000EF92FF920F931F93CF93DF93E82FF0E0A3
:101C2000E457FA4FD490282F26952695269530E034
:101C3000F901E45DF94F0491877010E0082E02C0AD
:101C4000159507950A94E2F701701127F901E45EF2
:101C5000F94FE490F12C082E02C0F594E7940A9411
:101C6000E2F791E0E922FF24F901E45FF94FC49122
:101C7000D0E002C0D595C7958A95E2F7C170DD27FF
:101C80000115110519F081EE0E949D18E114F1046F
:101C900019F086EE0E949D188D2D0E948D19EF2857
:101CA00019F086EE0E942719012B19F081EE0E948F
:101CB0002719CD2B51F08CE2DF91CF911F910F911D
:101CC000FF90EF90DF900C948D19DF91CF911F91D1
:101CD0000F91FF90EF90DF900895EF92FF920F9396
:101CE0001F93CF93DF93EC01162F0AE0888188239E
:101CF00009F454C0813009F04EC08981813099F4D3
:101D00007E0122E0E20EF11C8A810E948D19E7011A
:101D10002196812F815050F3EFE9FFE03197F1F7E1
:101D200000C00000F7CF823041F47E0182E0E80E6F
:101D3000F11C8A810E949D18EACF833041F47E0114
:101D4000E2E0EE0EF11C8A810E942719E0CF843078
:101D500011F02196DDCF2A81229690E080E0AE013D
:101D60004F5F5F4F2053330B2A30310548F0019706
:101D700078F2EFE9FFE03197F1F700C00000F7CF0C
:101D8000089FB001099F700D1124C901860F971F8C
:101D90002981EA01E4CF0E94070EBACFDF91CF91EB
:101DA0001F910F91FF90EF90089560E00C946D0EDD
:101DB000089581E008950C94D90ECF93C82F0E9406
:101DC000C40C8C2FCF910C94DB0E90E080E0089532
:101DD0000895FC01EE0FFF1FE45CF94F859194918B
:101DE0000895CF93DF930E944E140E94FD0FEC01E3
:101DF000811520E5920708F041C0811530E4930772
:101E000008F0B4C0803E910518F5803C910508F0BB
:101E10009DC0883A910570F4853A910508F08EC00E
:101E200081309105F9F00097E9F00497D8F4D0E0FB
:101E3000C0E018C08F3B9105D0F7C85AD0E0CC0F56
:101E4000DD1FC35DDE4F0990D881C02DD4640AC068
:101E50008115904258F4C11581E0D80718F4C83EA6
:101E6000D10528F7CE01DF91CF910895C11590E3F8
:101E7000D90708F071C0CE019F706AC0811525E5B1
:101E8000920758F5811534E5930708F09EC0811537
:101E900042E5940750F4C11581E5D80708F469C0FC
:101EA000DC2FCC27C16FD06ADDCF982F9695969501
:101EB0009E0123703327C115D34508F077C0C1E0D8
:101EC000D0E002C0CC0FDD1F2A95E2F720E2929FFE
:101ED000C0011124C82BD92B67C0C11589E5D807CB
:101EE000A8F4C11598E5D90708F074C0C11526E516
:101EF000D20708F09CCF8C2F0E949410C82FD0E0FE
:101F0000DC2FCC27CC27DF71D062ACCFC1153AE5EE
:101F1000D30708F464C0CE0190568115904208F0B2
:101F200086CF8D2F8F710E94941090E0982F882774
:101F300088279F719C012C2BE901E6CFC55AD0E080
:101F4000C55ADE4FC881D0E0D0648CCF805C910947
:101F50000E94E90EEC0186CFCE019927D3FF03C082
:101F6000EC01D86C7FCFEC01D06C7CCFDF70D06AF5
:101F700079CFCE01E4E096958795EA95E1F78370F5
:101F80002C2F26952695237090E2299F90011124ED
:101F9000382B8C2F8370C1E0D0E002C0CC0FDD1F46
:101FA0008A95E2F7C22BD32BDC685CCFC1E0D0E08E
:101FB00002C0CC0FDD1F2A95E2F730E2939FC001EB
:101FC0001124C82BD92BDA684DCFD82FCC27C46F5A
:101FD000D06A48CFDC2FCC27C06FD06A43CF8C2F7C
:101FE0008F700E94941034E0D695C7953A95E1F72A
:101FF000CF709C2FEC01D06935CF82389105B1F1BB
:10200000B0F48133910509F475C048F48932910523
:1020100009F469C08A32910509F473C008958533C3
:10202000910509F459C08933910501F10895833E62
:102030009105A9F138F4803E9105F9F0823E9105B1
:1020400049F10895863E9105A9F1873E9105C9F1B0
:10205000843E910519F52091D90421FF1FC080917C
:10206000D80484FD14C087EE90E008952091D80430
:102070002370A1F080EE90E008952091D80420FD17
:1020800047C03091D90430FF09C024FF44C090E01C
:1020900080E004C02091D80422FDF7CF089520915C
:1020A000D80422FD3BC03091D90430FDE3CF24FF9A
:1020B000F5CFEDCF2091D80423FFF0CF24FDE7CF5B
:1020C000D2CF2091D80423FD2CC03091D90431FF08
:1020D000EECF84EE90E008952091D80425FFDECF66
:1020E00089E290E008952091D80425FFD7CF85E3B9
:1020F00090E008952091D80426FFD0CF8AE290E0A6
:1021000008952091D80426FFC9CF81E390E0089577
:1021100089E390E0089583EE90E0089582EE90E0E8
:10212000089586EE90E008959091D80492FF06C03D
:10213000282F28712830F9F4877F846093FF06C028
:10214000282F28712831F1F4877E84612091D904E9
:1021500020FF06C0382F38713830D9F4877F81606E
:1021600021FF06C0282F28712831D1F4877E816194
:1021700094FD877E0895282F24712430F9F68B7FF3
:102180008860DCCF282F2471243101F78B7E886191
:10219000DDCF382F3171313019F78E7F8860E0CF75
:1021A000282F2171213121F78E7E8861E1CF0C9497
:1021B00071120E946E118FE39CE90197F1F700C044
:1021C00000000E946E1180E00E94151180FF04C083
:1021D0000E94D7100C94B32408950C94D9100E9437
:1021E0008322811102C00E9428230E948E228093A4
:1021F000C0020E9496229093D9048093D8040E9432
:10220000ED100E949222682F70E090E080E00E9422
:10221000971F609193027091940280919502909122
:1022200096020C94D11F08950895E82FF0E0EE0F68
:10223000FF1FEA51FB4F808191810895089580EA44
:102240008A95F1F7089500C008950C941F11F89431
:10225000E82FE295EF70F0E031A1282F2F7081E098
:1022600090E001C0880F2A95EAF7982F9095932364
:1022700091A392A1892B82A378940895CF93DF93A1
:10228000CEE5D1E089910E94271181E0CE36D807B2
:10229000C9F781EF0E94271180EF0E94271186EC79
:1022A0000E94271184EF0E94271186EF0E942711B8
:1022B00087EF0E942711EAEDF4E0A6EEB4E0119258
:1022C00011921D921D9284E0E63EF807C1F786E068
:1022D0000E940612DF91CF910C94990D6F927F921C
:1022E0009F92AF92BF92CF92DF92EF92FF920F93A5
:1022F0001F93CF93DF939EE5E92E91E0F92E10E036
:1023000000E0C0E0CC24C394D12C36EEA32E34E000
:10231000B32ED7018D917D01F894E82FE295EF70EF
:10232000F0E021A18F70A60102C0440F551F8A95CD
:10233000E2F7CA01922F982B91A392A1809589234D
:1023400082A378940E942311A601002E02C0440F9C
:10235000551F0A94E2F7BA0160957095EAEDF4E032
:102360008EE6682E81E0782ED0E021913191D30164
:102370009D903D01892D82958F7090E0DC019096B3
:102380008C9190E0B92DBF7002C095958795BA9554
:10239000E2F780FD37C0C901842B952B2817390738
:1023A00039F09F0122503109D9018D939C93D1E0DE
:1023B000AE16BF06D1F6F701319780810E94271132
:1023C0000E942511CD2B0F5F1F4F0031110509F021
:1023D000A0CF2C2F46E066EE74E08AED94E00E94D8
:1023E00007120E949D0D8C2FDF91CF911F910F91AD
:1023F000FF90EF90DF90CF90BF90AF909F907F9035
:102400006F900895C90186239723C8CF0895FF923E
:102410000F931F93CF93DF93F82E092F162FD72FEB
:10242000C42F222349F081E08093FE010E9468249A
:102430009093FD018093FC018091FE018823A1F01F
:102440008091FC019091FD010E948024069760F02C
:10245000EF2DF02FA12FBD2F90E080E0D0E08C1762
:102460009D0744F01092FE01DF91CF911F910F91D3
:10247000FF900895219131912D933D930196EFCFD7
:1024800083E290E00E94EE2C813289F484E290E0B5
:102490000E94EE2C873059F485E290E00E94EE2CE9
:1024A00091E0863009F090E0892F8170089580E0F6
:1024B000FCCFCF93C82F6FEF811161E283E290E0F0
:1024C0000E940C2D6FEFC11167E084E290E00E9442
:1024D0000C2D6FEFC11166E085E290E0CF910C9476
:1024E0000C2D80E00E9459120C947D2286E290E02F
:1024F0000E94EE2C682F70E090E080E0089586E264
:1025000090E00C940C2D0E94790C0E9440128111D5
:102510000CC060E070E0CB010E947F120E94C413E7
:102520000E94B01481E00C9459120895CF93FB01DE
:10253000C281CC2309F19C0122513F452031310554
:1025400020F582510E94C014C0E08C2FCF910895D5
:1025500081E00E94192043E062E081E00E94870D43
:10256000F3CF81E00E943A2043E062E081E00E94E4
:10257000870DEBCF82E0F6CF8031FFE59F0789F32F
:1025800081319F45B9F3C1E0E0CF8031EFE59E078F
:10259000F9F281319F45C9F682E0DBCFEF92FF92DD
:1025A0000F931F93CF93DF93EC01062FE881E15047
:1025B000E33108F0A4C0F0E0E458F24D0C94752C1F
:1025C000198289E08A83602FCE01DF91CF911F911C
:1025D0000F91FF90EF900C945A258981823069F019
:1025E000833071F08130D9F40E9474240E947B2CD6
:1025F0006A837B838C839D83E6CF0E947612F6CF1D
:102600007E0110E0812F0E941511F70192838383D0
:102610001F5FF2E0EF0EF11C1630A1F7D4CF602F50
:10262000CE010E94D20CCFCF89818230C1F76A815E
:102630007B818C819D810E947B2C0E947F12C3CF65
:102640004B816A8189810E94961398278927982750
:102650009D838C83B8CF2C813D813227232732275D
:102660004B816A8189810E94AF13ADCF0E94C41350
:10267000AACF0E945B148983A6CF0E945D1498277D
:10268000892798279A8389839ECF6B8170E08981FF
:102690009A81AE014C5F5F4F9827892798270E9447
:1026A000601491CF6B8170E089819A81AE014C5F9B
:1026B0005F4F9827892798270E94861484CF0E940D
:1026C000B01481CF0E948213D6CF6B8170E08981D4
:1026D0009A81AE014C5F5F4F9827892798270E9407
:1026E000FC1371CF6B8170E089819A81AE014C5FE0
:1026F0005F4F9827892798270E94231464CF8FEF74
:10270000888361CF84E0089590E2699FB00111242D
:1027100050E0440F551F640F751F90EC899F600DAA
:10272000711D1124CB018A5B9F4F08950F931F9356
:10273000CF93DF930E9484138C010E94EE2CC82F4C
:10274000D0E0DC2FCC27C80101960E94EE2C9E0120
:10275000282BC901DF91CF911F910F9108950F93FD
:102760001F93CF93DF93122F032F0E948413EC014A
:10277000602F0E940C2D612FCE010196DF91CF9129
:102780001F910F910C940C2DAF92BF92CF92DF92BC
:10279000EF92FF921F93CF93DF938CE8C82E82E0D5
:1027A000D82ED0E07601C0E014C0F5012591349117
:1027B000412F6C2F8D2F0E94AF1382E0A80EB11C09
:1027C0001F5F103191F780E2E80EF11CCF5FC63039
:1027D00019F0570110E0E9CFDF5F80ECC80ED11C83
:1027E000D43001F7DF91CF911F91FF90EF90DF90F0
:1027F000CF90BF90AF900895EF92FF920F931F93E9
:10280000CF93DF93EC018A017C01E60EF71ECE0127
:102810008A5B9F4FCE15DF0539F4DF91CF911F9171
:102820000F91FF90EF900895C11523E0D20740F477
:102830000E94EE2CF80180830F5F1F4F2196E7CF97
:10284000F8011082F9CFCF92DF92EF92FF920F93AF
:102850001F93CF93DF937C016A018C01060F171F32
:10286000EC01CE018A5B9F4FC017D10749F4DF917D
:10287000CF911F910F91FF90EF90DF90CF9008952F
:10288000C11523E0D20740F4FE01EE19FF09EC0D5B
:10289000FD1D60810E940C2D2196E3CF462F8430D0
:1028A00038F4763028F4603118F4672F0C949613BE
:1028B00090E080E0089580E108958AEB90E008952B
:1028C000EF92FF920F931F93CF93DF93EC018A0156
:1028D0007C01E60EF71ECE018A5B9C4FCE15DF050C
:1028E00039F4DF91CF911F910F91FF90EF900895F0
:1028F000CA3BD10540F40E94EE2CF80180830F5FA3
:102900001F4F2196E8CFF8011082F9CFCF92DF92C6
:10291000EF92FF920F931F93CF93DF937C016A0195
:102920008C01060F171FEC01CE018A5B9C4FC0176C
:10293000D10749F4DF91CF911F910F91FF90EF9054
:10294000DF90CF900895CA3BD10540F4FE01EE1907
:10295000FF09EC0DFD1D60810E940C2D2196E4CF36
:10296000CF93DF93C6E4D3E060E0CE010E940C2D4C
:102970002196C11584E0D807B9F7DF91CF9108956A
:10298000DF92EF92FF920F931F93CF93DF9300D0CC
:1029900000D0CDB7DEB7F82E8FE08F1540F08FEF67
:1029A00093E00E94EE2C06E413E08823C1F00F9020
:1029B0000F900F900F90DF91CF911F910F91FF908B
:1029C000EF90DF900895011584E0180781F3C801A6
:1029D0000E94EE2C811101C0FA940F5F1F4FF1107D
:1029E000F2CF19821A821B821C82DD24D3947801D3
:1029F0008FEFE81AF80AC8010E94EE2C89831A8228
:102A00008823A9F29FEF980F933078F48A83D982B4
:102A10000E5F1F4FC7010E94EE2C8B83882339F273
:102A2000CE0101960E94D50EE2CF8701F9CF0F9318
:102A30001F93CF93DF93C42FD22FFC018281882371
:102A4000C9F0409301020E94682490930002809391
:102A5000FF0180E28C0F883008F050C0C77081E021
:102A600001C0880FCA95EAF7DF91CF911F910F91AE
:102A70000C94951910910102141335C08091FF0137
:102A8000909100020E948024883C910560F5C0E28C
:102A9000CD0F1D17B9F080E2810F883040F4177018
:102AA00081E001C0880F1A95EAF70E949C19C8308E
:102AB00048F481E09D2F977001C0880F9A95EAF73E
:102AC0000E949519802F0E948D19C830B8F4D770D4
:102AD00081E001C0880FDA95EAF7DF91CF911F916D
:102AE0000F910C949C1980E28C0F883038F4C770D9
:102AF00081E001C0880FCA95EAF7EFCFDF91CF914F
:102B00001F910F9108950F939C01CB01233F4CE53A
:102B1000340759F1A8F4283DFCE53F0701F1293DB0
:102B20004CE53407D1F1273D3C4591F406E221EE16
:102B300041EE67ED7CE50E94171580E00F91089546
:102B4000253FFCE53F07E9F0B0F0263F3C45F9F0B2
:102B5000FC018281882339F110920102EFCF07E254
:102B600025EE45EE68ED7CE5E6CF06E221EE40EE8F
:102B700063EF7CE5E0CF07E225EE44EE64EF7CE511
:102B8000DACF06E221EE42EE65EF7CE5D4CF07E234
:102B900025EE46EE66EF7CE5CECF08E221E045EE7D
:102BA00069ED7CE5C8CF81E0C9CFCF93DF93EC011D
:102BB000FB018281882309F419C1C230FCE5DF07DB
:102BC000C0F1C6319CE5D90730F09E012A5F3C4533
:102BD0002930310570F50E9496229093D904809394
:102BE000D804C031ECE5DE0709F4CFC008F05BC0C3
:102BF000C8308CE5D80709F4B6C088F5C430ECE5D8
:102C0000DE0709F4A8C0C0F4C2308CE5D80709F487
:102C10009CC08091D8048260C330DC4509F498C020
:102C20008091D8049091D9040E94A4220E94FF1B95
:102C300080E0DF91CF9108958091D8048061C63003
:102C4000ECE5DE0709F484C08091D8048860C730C1
:102C5000DC4508F47DC08091D804806279C0CC3016
:102C60008CE5D80709F489C070F48091D8048C6091
:102C7000CA30ECE5DE0709F46BC008F478C0809137
:102C8000D8048E7F65C0CE308CE5D80709F479C0B2
:102C90008091D8048B7FCF30DC4508F459C08091F7
:102CA000D8048F7E55C0CB3FECE5DE0709F457C052
:102CB00030F5C3318CE5D80709F46FC078F4C13121
:102CC000ECE5DE0709F465C0C231DC4509F0A8CFA8
:102CD0000E94FF1B8091D8048F773AC0C5318CE5E4
:102CE000D80709F462C008F476C08091D9048160E5
:102CF000CA3FDC4509F094CF8093D90491CFCF3FF0
:102D0000FCE5DF0709F44DC088F48091D9048D7F7C
:102D1000CD3F9CE5D90781F38091D9048E7FCE3FCA
:102D2000DC4550F38091D9048360E6CFC130FDE5E6
:102D3000DF0709F459C008F444C080E0C230DD4523
:102D400009F06ECF0E942A236BCF8091D804816056
:102D50008093D80465CF8091D8048460F9CF8091A6
:102D6000D9048260C9CF8091D8048064F1CF0E94D9
:102D7000FF1B8091D8048068EBCF8091D8048D7FB1
:102D8000E7CF8091D804877FE3CF8091D8048F7DEF
:102D9000DFCF8091D8048F7BDBCF8091D804837FF5
:102DA000D7CF8091D9048C7FA7CF8091D80482FBA4
:102DB000992790F921E0922790FB82F990FB83F903
:102DC000C7CF8091D904982F909591708E7F892BD1
:102DD00090FB81F991CF0E94FF1B9091D804892F1D
:102DE00097FB87F98058B4CF81E0ACCF81E021CF49
:102DF000CF93DF93EB0186319C4511F50E94BE21F4
:102E00009A81992399F08A7A91E009F490E090935D
:102E10000202811109C089E20E9478210E940E22DB
:102E200080E0DF91CF91089585E3F6CF8091020293
:102E3000811104C089E20E947F21F0CF85E3FBCF9E
:102E400081E0EFCF90930802809307020895E0910C
:102E50000702F0910802309721F00190F081E02DF7
:102E6000099480E00895E0910702F09108023097FC
:102E700099F020912C01222359F02091D80427FFAA
:102E800007C0DC012C9111962C93119725E02C930F
:102E90000280F381E02D099408952091050230917C
:102EA00006022817390771F09093060280930502F5
:102EB000E0910702F0910802309721F00680F78137
:102EC000E02D0994089520910302309104022817FF
:102ED000390771F09093040280930302E091070296
:102EE000F0910802309721F00084F185E02D0994DB
:102EF00008950E94742460931A0270931B028093B9
:102F00001C0290931D026093160270931702809327
:102F1000180290931902089585B7806885BF85B718
:102F2000806885BF0895089508950C9493170895B7
:102F30000C9497170E948C178BE792E20E94D7247B
:102F40000E9494170C94951781E008950C94A4178F
:102F5000089508950E94A8170C94A9170E945F2451
:102F60000E943E110E9483120C9498178F929F9298
:102F7000AF92BF92CF92DF92EF92FF920F931F9387
:102F8000CF93DF93CDB7DEB72A970FB6F894DEBFA5
:102F90000FBECDBF0E946E1181110E9479175AE0B9
:102FA000852E52E0952E10E000E0A02E802F0E948A
:102FB00015116C01F401E190F1904F01E816F9064A
:102FC00009F45AC08091C00281FD0E941E11C70100
:102FD0008C259D25B12CEE24E394F12C9C012E210F
:102FE0003F21232B09F442C00E94A6178823A9F091
:102FF000BE82AF82CE20DF2081E0CD2809F480E0C0
:1030000088870E9468248160782F9A8789874E81FB
:103010005F8168858A850E946618000F111FF8017C
:10302000E65FFD4F80819181E826F926F182E082FA
:103030000E942717909109028917A9F10E9427176A
:10304000809309022A960FB6F894DEBF0FBECDBF5B
:10305000DF91CF911F910F91FF90EF90DF90CF9074
:10306000BF90AF909F908F900C94DD0EB394EE0CB8
:10307000FF1CF0E1BF12B2CF0F5F1F4F06301105EA
:1030800009F093CF8FEF89838A831B820E94682483
:103090008160782F9D838C8349815A816B818D81DA
:1030A0000E946618C5CF2A960FB6F894DEBF0FBEF1
:1030B000CDBFDF91CF911F910F91FF90EF90DF90E7
:1030C000CF90BF90AF909F908F900895DF92EF9236
:1030D000FF920F931F93CF93DF93CDB7DEB72B975C
:1030E0000FB6F894DEBF0FBECDBF7A878B87F42E64
:1030F000052F162FE72ED82E61110E94DE211E8289
:103100001D827E2DEC82DD824F2D502F612F8D2D63
:103110009E812B960FB6F894DEBF0FBECDBFDF9118
:10312000CF911F910F91FF90EF90DF900C94751E3F
:10313000FC01808191810C944A21CF93C82F882370
:1031400009F483C08238C1F40E94271781FD7DC035
:1031500089E30E9478210E940E222FEF81EE94E0F5
:10316000215080409040E1F700C0000089E30E94B8
:103170007F21CF910C940E228338A1F40E9427174F
:1031800080FD63C083E50E9478210E940E222FEF0C
:1031900081EE94E0215080409040E1F700C00000B3
:1031A00083E5E5CF8438A1F40E94271782FD4DC046
:1031B00087E40E9478210E940E222FEF81EE94E096
:1031C000215080409040E1F700C0000087E4CFCF5D
:1031D0008CEF8C0F813A90F46C2F809120019091AC
:1031E00021010E944323882329F08C2F0E947F21F4
:1031F0000E940E228C2F0E947821BBCF80E28C0F80
:10320000883048F4C77081E001C0880FCA95EAF79A
:103210000E94C121AECFEBE5EC0FE33040F4F0E0CB
:10322000EE55FE4F808190E0CF910C944D17C85A17
:10323000C73158F4EC2FF0E0EE0FFF1FEC58FE4FB3
:1032400080819181CF910C946317CF910895882349
:1032500009F44BC0823871F40E94271781FF45C0E2
:1032600089E30E9478210E940E2289E30E947F2137
:103270000C940E22833859F40E94271780FF35C022
:1032800083E50E9478210E940E2283E5EFCF8438E7
:1032900059F40E94271782FF28C087E40E947821F2
:1032A0000E940E2287E4E2CF9CEF980F913AF0F251
:1032B00090E2980F983050F4877091E001C0990F18
:1032C0008A95EAF7892F0E94C721D2CF9BE5980FF4
:1032D000933020F490E080E00C944D17885A8731A9
:1032E00020F490E080E00C94631708951F93CF932F
:1032F000DF93182FEB010E949D18209731F4812F46
:10330000DF91CF911F910C9427198FE99FE00197CE
:10331000F1F700C000002197F0CF70E060E0893342
:1033200011F460E570E00C947619882321F00E9476
:10333000C1210C940E220895882321F00E94C721F8
:103340000C940E220895BF92CF92DF92EF92FF92DB
:103350000F931F93CF93DF936C01D62FC72FFC01E0
:103360001281058102950F700E949621E82E882314
:10337000A1F0E12E112389F08C2F807F803429F079
:1033800080E28D0FE12C883040F082E00E945F22C5
:103390000E94962191E0E82EE926BC2EB2949FE08F
:1033A000B922EB2DF0E0E157F24D0C94752C0C2F67
:1033B0000F70C07F11F00295007F1123A9F0002348
:1033C00059F080E28D0F883010F0D11109C0802FA4
:1033D0000E94C1210E940E228D2F0E949D1814C0B0
:1033E000802F0E94D121F6CF8D2F0E942719002314
:1033F00059F080E28D0F883010F0D1112CC0802F51
:103400000E94C7210E940E222B2D2850330B2430FE
:10341000310520F40E9427170E94DD0EEE2009F4EA
:1034200093C10E94922180FD8FC1F60112820E94F9
:103430008C210E941920C6010E94C51B0E948C216C
:10344000DF91CF911F910F91FF90EF90DF90CF9080
:10345000BF900C943A20802F0E94D721D3CFFC2F0D
:10346000FF70FF2EC07FC03219F0F29480EFF82277
:10347000DD2369F0D13049F1112391F1002351F19D
:10348000F601858180FFA8CF8F70858323C011232B
:1034900081F0011106C00E94F1218F290E94951927
:1034A000B3CF0130C1F70E94F1218F290E94F7218B
:1034B000ABCF011106C00E9404228F2D0E949C19DF
:1034C000A3CF013009F4A0CFF6CF112329F00630A5
:1034D00008F09ACF8F2DE2CF053008F095CFEDCFD1
:1034E000002359F3D93349F4FFEF27EE33E0F150CD
:1034F00020403040E1F700C000008D2F0E942719C6
:1035000083CF8C2F86958695837069F0813009F082
:103510007BCF8D2F9C2F9370111102C090E080E023
:103520000E94631771CF8D2F9C2F9370111102C0D1
:1035300090E080E00E944D1767CF8C2F837009F0D8
:1035400041C0111161CF4D2F429546954770440FF0
:10355000440F0D2F0F7010E030E020E0042E04C067
:10356000000F111F221F331F0A94D2F760E070E092
:10357000CB01D4FF0FC06FE070E080E090E004C0AA
:10358000660F771F881F991F4A95D2F7609570952F
:1035900080959095C695C695C370602B712B822B34
:1035A000932BC23049F058F4C13019F00E94AB1F80
:1035B0002BCF0E94991F28CF0E94BD1F25CF0E94AC
:1035C000971F22CF8695112311F08C2F81708823AD
:1035D00009F41ACF4D2F429546954770440F440F7A
:1035E0000D2F0F7010E030E020E0042E04C0000F1B
:1035F000111F221F331F0A94D2F760E070E0CB0145
:10360000D4FF0FC06FE070E080E090E004C0660F70
:10361000771F881F991F4A95D2F7609570958095FE
:103620009095C695C695C370602B712B822B932BFA
:10363000C23049F058F4C13019F00E949020E4CE15
:103640000E947E20E1CE0E94A220DECE0E94D31FE7
:10365000DBCECF70112329F08C2F0E9419208D2FE3
:103660001DCF8D2F0E949C198C2F0E943A20CCCE0A
:10367000D23F89F160F4D03FC9F0D13F29F1112345
:1036800009F442C00111A8CE8C2F8F7121C0D33F05
:1036900039F1D43FA1F7112369F1CF718C2F0E942A
:1036A000192063E08C2F0E944422AECE112341F0FA
:1036B000053008F0A9CE8C2F8F710E945D20A4CE1A
:1036C000063008F0A1CEF7CF8C2F8F71112369F24D
:1036D0000E94192099CE8C2F8F711123C9F3C5CF69
:1036E000112329F08C2F8F710E9404208DCE0E940F
:1036F000DF1F8ACE81E00E945F22023008F484CE70
:1037000082E00E945F2280CE002359F0D93309F075
:10371000F4CE8FEF97EEE3E081509040E040E1F788
:10372000EACE8C2F8F71A1CF4C2F4F706D2FC60119
:103730000E94E50E0E940F1F67CE4C2F4F706D2F19
:10374000C6010E94E80E60CEDF91CF911F910F91CC
:10375000FF90EF90DF90CF90BF9008950F931F934D
:10376000CF93DF93EC01688179818A810E94542193
:103770008C010E94B4200E94961FB801CE01DF91F7
:10378000CF911F910F910C94A319CF93DF93EC016C
:103790008B819C81892B29F08881998189238F3F96
:1037A00059F4DF91CF910895CE010E94AE1BCE0156
:1037B000DF91CF910C94280DCE010E94AF0D8111A5
:1037C000F3CF0E949621882361F38A81882349F3ED
:1037D00082E0DF91CF910C945F2290E080E00E9424
:1037E0004D1790E080E00E9463170E94DE210E9446
:1037F000EE210C940E220E9486210C94ED1B0E9457
:10380000CE210C94FB1BE92FE295EF70E250EE30D5
:1038100070F4F0E0E156F24D0C94752C803F19F0F5
:1038200020F4883E20F481E00895843FE1F380E0B5
:103830000895883EC0F3813FD1F7F5CF93FB8827E9
:1038400080F908950E944A210C94031CCF93DF93C2
:1038500000D000D00F92CDB7DEB70F900F900F9031
:103860000F900F90DF91CF910895CF93DF9300D009
:1038700000D000D0CDB7DEB726960FB6F894DEBFE5
:103880000FBECDBFDF91CF9108951F93CF93DF93EC
:10389000C0911F0216E0809120028C1304C0DF91BA
:1038A000CF911F910895D0E01C9FF0011D9FF00D56
:1038B0001124EF5DFD4F40815181628173818481CC
:1038C00095810E94351C2196C770E5CF4091510229
:1038D00050915202609153027091540280915502AE
:1038E000909156020C94351C1F93CF93DF938091D7
:1038F0005602807FA9F480915302882389F0809139
:103900001F02C09120026091510270915202A09159
:103910005402B0915502D62FD72316E0C81304C025
:10392000DF91CF911F91089590E0109711F0DF3F44
:1039300019F401968770F2CF189F9001199F300DEE
:103940001124F901EF5DFD4F41814713F2CF408112
:103950004613EFCF42814111ECCF438154814A1B82
:103960005B0B483C510528F7809156028F708061AF
:1039700080935602F901EA5DFD4F80818F7080616E
:10398000808381E592E00E94C51BDF91CF911F915A
:103990000C94451CAF92BF92CF92DF92EF92FF92B0
:1039A0000F931F93CF93DF93CDB7DEB761970FB619
:1039B000F894DEBF0FBECDBF8C0185E0F801DE01BB
:1039C0001D9601900D928A95E1F7F8014081518191
:1039D000E28081E5C82E82E0D82E60915402709179
:1039E00055026115710509F461C190915102209150
:1039F0005202892F82238F3F09F458C1A380B480DB
:103A0000F0905302F501E61BF70BFF2009F4FCC010
:103A100080915602382F307FE83CF10508F0B2C0A3
:103A2000311179C0FE2C251323C0941321C0E1105D
:103A30001FC08F708061809356020E94661CC60171
:103A40000E94C51B80915602F80185838F2D6196D7
:103A50000FB6F894DEBF0FBECDBFDF91CF911F919F
:103A60000F91FF90EF90DF90CF90BF90AF900895AF
:103A7000AB2829F0842F85238F3F09F033C180E0E4
:103A8000F82FF170DF2E80FF3CC080911F02209143
:103A9000200236E0821315C04D875E878D859E8596
:103AA0000E944A21292F22952F702230F0F02430D5
:103AB00018F59F70F1F0F8019581907FD1F4D12C29
:103AC0001EC090E0389FF001399FF00D1124EF5D8A
:103AD000FD4F6181651306C06081641303C062817C
:103AE0006E110FC001968770D5CF9F7011F088239B
:103AF00031F3805E883018F3C8010E94C51BFD2C8D
:103B0000A5CFEE2009F4A2CF809156028160809368
:103B10005602F12C9BCF251306C0941304C0F80164
:103B2000EE2009F48DC04D875E878D859E850E94AD
:103B3000221C882319F1EE2009F18091560280326F
:103B400070F0209151023091520238872F831986EC
:103B5000BB86AA868C87CE0107960E94C51B86E08D
:103B6000F801A1E5B2E001900D928A95E1F70E947B
:103B7000741C0E94661CFF24F39468CFC8010E9445
:103B8000C51BF9CF311113C07A2DB98AA88A6E2DC1
:103B900089890E94261C81E592E00E94C51B86E06F
:103BA000F60111928A95E9F70E94661CB2CF25139F
:103BB0000FC094130DC0E1100BC0F8018583C8013C
:103BC0000E94C51B86E0F60111928A95E9F73ECF67
:103BD0004D875E878D859E850E94221C882371F209
:103BE000EE2061F280915602803208F4B8CF209125
:103BF0005102309152023A8329831B82BD82AC82EA
:103C00008E83CE010196A9CFE83CF10508F041C0B2
:103C1000FE2CEE2009F4B2CF25132AC0941328C03D
:103C20008091560280FD1BC0982F907FC1F0F80153
:103C30008583903F31F0982F907F905F8F70892B14
:103C40008583C8010E94C51B86E0F801A1E5B2E0AA
:103C500001900D928A95E1F70E94661CF7CE86E0EE
:103C6000F801A1E5B2E001900D928A95E1F7EECE60
:103C70004D875E878D859E850E94221C81116FCFA6
:103C800080915602816080935602C8010E94C51B34
:103C9000DDCE7A2DB98AA88A6E2D89890E94261CCC
:103CA00086E0F60111928A95E9F7D6CFEE2009F465
:103CB00065CF4D875E878D859E850E94221CF82EDC
:103CC000882309F45BCF86E0F801A1E5B2E001901A
:103CD0000D928A95E1F781E592E00E9498180E9482
:103CE000741CBACF81E08E25CBCE1F93CF93DF9388
:103CF000CDB7DEB72C970FB6F894DEBF0FBECDBFA1
:103D00004F83588769877A878B879C87CE01079670
:103D10000E94CA1C882369F08A859B85892B39F00B
:103D20004F815885842F85238F3F09F071C016E09D
:103D30005FC086E0FE013796DE01119601900D927C
:103D40008A95E1F78A859B85892B89F38F819885F0
:103D500089238F3F61F32091200230E0C901019651
:103D60008770992740911F024817190671F40E9425
:103D7000FF1B1092200210921F0286E0E1E5F2E0A4
:103D8000DF011D928A95E9F7D2CF96E0929FD0018C
:103D9000939FB00D1124AF5DBD4FFE013196019090
:103DA0000D929A95E1F7809320020E94451CBFCFA7
:103DB000819FC00111248F5D9D4F0E94CA1C8823E2
:103DC000E9F0E0911F021E9FF0011124EF5DFD4F0D
:103DD0004081518162817381848195810E94351C6B
:103DE00080911F0290E001968770992780931F02AF
:103DF00080911F02909120028913DACF2C960FB682
:103E0000F894DEBF0FBECDBFDF91CF911F91089513
:103E100069857A858B859C850E94351C88CFEF92B9
:103E2000FF920F931F93CF93DF938C01892B81F027
:103E3000F12CEE24E394E8012196F8018491843773
:103E400070F4843008F05FC08130B1F08230A1F1AD
:103E5000DF91CF911F910F91FF90EF9008958537DB
:103E600009F44CC008F43DC09CE7980F903780F7E8
:103E70008F770E94271949C00E5F1F4FFE01849162
:103E800090E2980F983060F48770FE2D01C0FF0F0C
:103E90008A95EAF78F2F0E94E1210E940E2202C02C
:103EA0000E949D188F2D815030F2EFE9FFE031978D
:103EB000F1F700C00000F7CF0E5F1F4FFE018491A5
:103EC00090E2980F983050F48770FE2D01C0FF0FDC
:103ED0008A95EAF78F2F0E94E721DFCF0E942719EA
:103EE000E1CF0E5F1F4FFE01C491C150D8F28FE9A0
:103EF0009FE00197F1F700C00000F7CF0E5F1F4F62
:103F0000FE01F490CFCF0E949D188E01CBCF089573
:103F10000C94871F0E94881F6093970270939802E9
:103F20008093990290939A020C94ED1B08950C943F
:103F30008A1F0F931F93009197021091980220916E
:103F4000990230919A02602B712B822B932B1F9137
:103F50000F910C948A1F0F931F9300919702109159
:103F600098022091990230919A0260237123822352
:103F700093231F910F910C948A1F0F931F9300910D
:103F80009702109198022091990230919A0260272D
:103F90007127822793271F910F910C948A1F0C94ED
:103FA000871F0C94CF1F0E94D11F609393027093C0
:103FB000940280939502909396020C94ED1B60E01E
:103FC00070E0CB010C94D31F61157105810591053B
:103FD00029F481E0442361F080E00895DC01CB0105
:103FE00004C0B695A795979587954A95D2F78170A5
:103FF0000895482F609193027091940280919502E8
:10400000909196020C94E41F0F931F9341E050E0AF
:1040100060E070E08A019B0104C0000F111F221FA5
:10402000331F8A95D2F7C901B8011F910F910C94E3
:10403000D31F0F931F9341E050E060E070E004C095
:10404000440F551F661F771F8A95D2F78091930200
:1040500090919402A0919502B09196028A019B01E1
:10406000082B192B2A2B3B2BC901B8011F910F914B
:104070000C94D31F0F931F9341E050E060E070E079
:1040800004C0440F551F661F771F8A95D2F7CB01D6
:10409000BA0160957095809590950091930210916A
:1040A000940220919502309196026023712382231D
:1040B00093231F910F910C94D31F0F931F9341E0F3
:1040C00050E060E070E004C0440F551F661F771F8A
:1040D0008A95D2F78091930290919402A0919502D3
:1040E000B09196028A019B01082719272A273B27AE
:1040F000C901B8011F910F910C94D31F0F931F9307
:1041000000919302109194022091950230919602B1
:10411000602B712B822B932B1F910F910C94D31F2B
:104120000F931F9300919302109194022091950296
:104130003091960260237123822393231F910F9164
:104140000C94D31F0F931F9300919302109194022C
:10415000209195023091960260277127822793273C
:104160001F910F910C94D31F08959295907F890F02
:10417000982F977041E001C0440F9A95EAF7869511
:104180008695869595E0899FF0011124E95AFD4FA7
:1041900030E020E070E05191DF011197CB01022E59
:1041A00002C0969587950A94E2F7817081958527DC
:1041B000842385278C932F5F3F4F2530310559F796
:1041C00008959295907F890F982F97708695869580
:1041D000869525E0829FF0011124E95AFD4F50E0B9
:1041E00040E080E0219130E0092E02C0369527950D
:1041F0000A94E2F721703327042E01C0220F0A949B
:10420000EAF7822B4F5F5F4F4530510559F708950C
:10421000BF92CF92DF92EF92FF920F931F93CF93B3
:10422000DF938C01C0909302D0909402E0909502AD
:10423000F09096028091970290919802A091990235
:10424000B0919A02C82AD92AEA2AFB2ACFE1D0E003
:10425000BC2ED701C6010C2E04C0B695A795979524
:1042600087950A94D2F780FD0EC0219788F7B12C6C
:104270008B2DDF91CF911F910F91FF90EF90DF90E9
:10428000CF90BF900895B8018C2F0E94F10E019736
:1042900061F3EECFCF93DF93EC010E940821BE01C2
:1042A000DF91CF910C94F10E1F93CF93DF93EB012D
:1042B00090911E02992331F0CB01DF91CF911F9194
:1042C0000C944A21882379F0CB010E940821182FF1
:1042D000682FCE010E94B520BE01812FDF91CF91C2
:1042E0001F910C94F10ECB010E94E120182FF4CF06
:1042F000682F80912001909121010C94C323682F95
:1043000080912001909121010C94CE238091200175
:10431000909121010C94D92380919B0285958595DC
:104320008595089580919B028770089590919B02D6
:10433000977081E009F480E008959091D90492FB90
:10434000222720F9281751F080FB92F99093D90485
:104350008091D8049091D9040C94A422089580915E
:10436000D90482FB882780F991E089270C949D214C
:1043700081E00C949D2180E00C949D218091BF02EE
:1043800008959091BF02892B8093BF020895809574
:104390009091BF0298239093BF0208951092BF029C
:1043A00008959091BE02892B8093BE020895809556
:1043B0009091BE0298239093BE0208951092BE027F
:1043C00008959091BD02892B8093BD020895809538
:1043D0009091BD0298239093BD0208951092BD0262
:1043E000089580919C02089508950C94F421909171
:1043F000D90492FD08C090919C02981721F08093F7
:104400009C020C94F521089580919C02882329F048
:1044100010929C0280E00C94F5210895E091200117
:10442000F09121018091BF028083E0912001F09101
:10443000210180819091BE02892B8083E09120012F
:10444000F091210180819091BD02892B8083909110
:104450009C02992381F0E0912001F091210180815B
:10446000892B808380912001909121010E942F232C
:1044700081110E94042280912001909121010C94CD
:10448000331708950C9441229091D90492FD10C0E5
:1044900098E0899F90011124622B60939B020E94F7
:1044A000192080919B028595859585950C944222D3
:1044B0000C94192010929B0280E00C94422290915F
:1044C0009B028095892380939B02282F277039F4C3
:1044D000282F082E000C330B9217130621F490910D
:1044E000D90492FF07C08595859585950E943A204D
:1044F0000C945A22089580E008956FEF7FEF90E0CA
:1045000080E00C942A2D90E080E00E94F62C21E0BF
:104510008A3E9E4F09F020E0822F089582E090E0CD
:104520000C94EE2C83E090E00C94EE2CCF9384E07E
:1045300090E00E94EE2CC82F82E290E00E94EE2CC8
:10454000982F8C2FCF910895CF93C92F682F84E097
:1045500090E00E940C2D6C2F82E290E0CF910C94A1
:104560000C2DAB01BC018FE090E00C941E2DAB0133
:10457000BC0183E190E00C941E2D60E070E0CB0163
:104580000C94B72260E070E0CB010E94B1220C9441
:10459000BD226AEE7EEF90E080E00E942A2D60E06E
:1045A00082E090E00E940C2D60E083E090E00E94A9
:1045B0000C2D10929702109298021092990210926C
:1045C0009A0260E084E090E00E940C2D60E082E2BC
:1045D00090E00E940C2D60E085E090E00E940C2DA0
:1045E00060E086E090E00E940C2D6FEF87E090E0A5
:1045F0000E940C2D40E050E0BA0188E090E00E945B
:104600001E2D60E08DE090E00E940C2D40E050E017
:10461000BA0188E190E00E941E2D60E087E190E001
:104620000E940C2D40E050E0BA018CE190E00E9425
:104630001E2D70E060E080E290E00E942A2D40E0B4
:1046400050E0BA0188E190E00E941E2D0C94C22235
:104650000C94C922682F8EE090E00C940C2DFC0184
:10466000329680912C01882321F08091D8049EE11C
:1046700087FF96E080E0915008F40895219122236D
:10468000D1F38F5FF8CF662301F120912C01222313
:10469000F1F02091D80427FF1AC0462F4695469581
:1046A00046954E3190F4677021E030E002C0220F51
:1046B000331F6A95E2F7840F911DFC01828190E01F
:1046C0002823392381E0232B69F480E00895FC013D
:1046D000329608962191261721F0E817F907D1F7AD
:1046E000F4CF81E008959C01FC0132969FEF80E0B9
:1046F0004191461751F09F3F19F4411101C0982F85
:104700008F5F8630A9F79F3F09F40895290F311D67
:1047100097FD3A95F90162830895FC013296089657
:104720002191261303C0DF0111971C92E817F907A6
:10473000B9F70895E62FE695E695E695EE3168F42B
:10474000E80FF92FF11D677021E030E001C0220F62
:104750006A95EAF78281822B82830895E62FE69597
:10476000E695E695EE3170F4E80FF92FF11D6770CC
:1047700021E030E001C0220F6A95EAF7209582819E
:1047800028232283089520912C01222329F02091AF
:10479000D80427FD0C949A230C94732320912C01A8
:1047A000222329F02091D80427FD0C94AE230C94E9
:1047B0008D23FC01329680912C01882351F0809149
:1047C000D80487FF06C08EE1DF011D928A95E9F7C4
:1047D000089586E0F9CF08958091FA04843049F174
:1047E0000E94CC0C80E00E94DD0E1092C10288E194
:1047F00090E020E40FB6F894A895809360000FBE77
:104800002093600083B7817F846083BF83B781601A
:1048100083BF7894889583B78E7F83BF0FB6F89453
:10482000A89580916000886180936000109260007C
:104830000FBE08950895CF930E94EB230E946E113E
:104840000E941A24C0E08C2F0E941511892B31F48C
:10485000CF5FC630C1F780E0CF91089581E0FCCFF3
:104860000E94FF1B0E9427170E94DD0E0C94CF0CA4
:104870001F921FB61F9211248F939F93AF93BF93E4
:104880008091C102811113C08091F2049091F304D0
:10489000A091F404B091F5044196A11DB11D80933F
:1048A000F2049093F304A093F404B093F504BF9141
:1048B000AF919F918F911F901FBE1F90189582E01E
:1048C00084BD93E095BD9AEF97BD80936E000895E7
:1048D0002FB7F8948091F2049091F304A091F4041E
:1048E000B091F5042FBF08952FB7F8946091F204AA
:1048F0007091F3048091F4049091F5042FBF089512
:104900009C014FB7F8948091F2049091F304A09128
:10491000F404B091F5044FBF821B930B0895789473
:104920001F921FB61F9211248F939F93AF93BF9333
:104930008091F2049091F304A091F404B091F504F5
:104940000196A11DB11D8093F2049093F304A093EE
:10495000F404B093F504BF91AF919F918F911F9094
:104960001FBE1F90189581E08093E00080E2809345
:10497000D8001092C9008FE19EE40197F1F700C0C2
:10498000000087E090EBDC01809303059093040521
:10499000A0930505B093060588E19CE00FB6F89456
:1049A000A895809360000FBE90936000FFCF909316
:1049B000B5018093B40108958091E20208950895AD
:1049C000CF93DF9300D00F92CDB7DEB79091FA046A
:1049D000943011F589837B836A839093E9008FEF8C
:1049E0009091E800815095FD06C095ED9A95F1F7FC
:1049F00000008111F5CF8091E80085FF0DC050E0E7
:104A000040E063E070E0CE0101960E944B27809168
:104A1000E8008E778093E8000F900F900F90DF9161
:104A2000CF910895BC0184E00C94E024BC0183E0A4
:104A30000C94E024CF93DF93EC0180912C01882328
:104A4000B1F18091D80487FF32C060E284E08093A6
:104A5000E9008FEF9091E800815095FD06C095ED3B
:104A60009A95F1F700008111F5CF8091E80085FF5C
:104A70001BC080912C0170E050E040E0811104C027
:104A800050E040E068E070E0CE010E944B2780914A
:104A9000E8008E778093E80080E2FE01A2ECB2E0AD
:104AA00001900D928A95E1F7DF91CF91089568E02A
:104AB00081E0CDCFCF93FC01603221F58091FA04E3
:104AC000843001F5C091E900CF702091EC00922F65
:104AD000917020FD90E8C92B82E08093E9008091DD
:104AE000E80080FF0CC050E040E060E270E0CF01E1
:104AF0000E944B278091E8008E778093E800CF706A
:104B0000C093E900CF9108958091F904811109C003
:104B10000E942A290E9487298091E2008460809364
:104B2000E20008951092F9040895089508950895F3
:104B300042E061EC81E00E94A62842E261EC84E060
:104B40000E94A62842E261EC82E00E94A62842E28E
:104B500060EC83E00C94A6288091FC04833009F477
:104B600061C030F48130D1F1823009F49DC00895E4
:104B70008A3009F489C08B3009F46FC0893009F09C
:104B800050C08091FB04813209F04BC08091FF043A
:104B900090910005009719F0029709F042C08091AA
:104BA000E800877F8093E8008091E80082FF35C0AD
:104BB0009091F3008091F200029729F48091F10026
:104BC0008B7F813021F48091F1008093E20280910B
:104BD000E8008B778093E8000C94DA288091FB043E
:104BE000813AF9F48091E800877F8093E800809112
:104BF000FF0490910005892B61F460E282EC92E061
:104C000070E00E94E9278091E8008B778093E800AC
:104C1000089560E090E080E0F3CF8091FA04811184
:104C2000C3CF08958091FB04813AD9F78091FF04A6
:104C300090910005892BA9F78091E800877F8093E8
:104C4000E8008091E80080FFFCCF80912C018093E8
:104C5000F1008091E8008E77BDCF8091FB04813216
:104C600001F78091FF0490910005892BD1F6809186
:104C7000E800877F8093E8000E94DA288091FD0495
:104C800080932C010C94FF1B8091FB04813249F628
:104C90008091E800877F8093E8000E94DA28809165
:104CA000FE048093E30208958091FB04813A09F0A9
:104CB000B8CF8091E800877F8093E8008091E8007A
:104CC00080FFFCCF8091E302C2CFCDB7DEB7A097C3
:104CD0000FB6F894DEBF0FBECDBF84B7877F84BF09
:104CE0000FB6F894A8958091600088618093600069
:104CF000109260000FBE80E890E00FB6F8948093A9
:104D00006100909361000FBE0E949A170E942A29A9
:104D10000E9487298091E20084608093E200789469
:104D20000E94102C0E94AE1782E291E00E9422178E
:104D300013E08091FA048530B9F00E94B617809193
:104D4000FA048430C1F00E94AA17F3CF0E94EC232A
:104D50008091F804882341F00E941B24882321F0CD
:104D60000E9435270E94FF1B8091FA04853071F361
:104D70000E943024E2CF1093E9008091E80082FF86
:104D8000E2CF8091E80090E085FF09C050E040E06C
:104D900060E270E0CE0101960E949A2791E0809136
:104DA000E8008B778093E800992369F260E2CE01F6
:104DB00001960E94CE12C7CF0C94DE26292F3327EE
:104DC0002330310521F168F42130310509F443C065
:104DD0002230310509F444C090E080E030E020E06A
:104DE00026C02132310551F122323105A9F7633055
:104DF000710590F7FB01EE0FFF1FE855FE4F208174
:104E000031816B557E4FFB01808190E010C0992766
:104E10008130910581F0009729F00297E9F6ECE3E3
:104E2000F6E002C0EAE7F6E0849190E09F01FA0123
:104E3000318320830895E2E6F6E0F6CF6330710512
:104E400058F6660F771FFB01E255FE4F2081318136
:104E500089E090E0ECCF82E190E029ED36E0E7CF09
:104E60008BE590E02EE736E0E2CF80E189BD82E17C
:104E700089BD09B400FEFDCF8091D8008F7D80935D
:104E8000D8008091E00082608093E0008091E00093
:104E900081FDFCCF0895AF92BF92CF92DF92FF9237
:104EA0000F931F93CF93DF936C01EB018A010E9454
:104EB000F928F82E811123C00115110539F0F801E8
:104EC00080819181C81BD90BC80ED91EB12CA12C91
:104ED0002097A9F08091E80085FD22C08091E8002C
:104EE0008E778093E80001151105A1F0F80180810B
:104EF0009181A80EB91EB182A08285E0F82E8F2D77
:104F0000DF91CF911F910F91FF90DF90CF90BF90D5
:104F1000AF9008950E94F9288823D1F2F82EEFCFA0
:104F2000F60181916F018093F1002197FFEFAF1A95
:104F3000BF0ACECFAF92BF92CF92DF92FF920F9374
:104F40001F93CF93DF936C01EB018A010E94F92834
:104F5000F82E811123C00115110539F0F801808167
:104F60009181C81BD90BC80ED91EB12CA12C20973A
:104F7000A9F08091E80085FD22C08091E8008B7740
:104F80008093E80001151105A1F0F801808191815D
:104F9000A80EB91EB182A08285E0F82E8F2DDF9178
:104FA000CF911F910F91FF90DF90CF90BF90AF9066
:104FB00008950E94F9288823D1F2F82EEFCF80912E
:104FC000F100F60181936F012197FFEFAF1ABF0A3D
:104FD000CECFFC01809101059091020586179707BD
:104FE000A0F06115710529F49091E8009E779093E7
:104FF000E80090E06115710551F4911108C08091AD
:10500000E80082FF34C080E00895BC01F2CF8091B7
:10501000FA048823C1F18530C1F18091E80083FD55
:1050200030C08091E80082FDEACF8091E80080FFE7
:10503000E1CF8091F3002091F200382F61157105C6
:1050400019F02830310558F091E02830310509F089
:1050500090E02091E8002E772093E800CBCF81915B
:105060008093F100615071092F5F3F4FE7CF80912E
:10507000FA04882341F0853041F08091E80083FFF5
:10508000BECF81E0089582E0089583E00895FC0199
:10509000809101059091020586179707A0F0611590
:1050A000710529F48091E8008E778093E80090E004
:1050B0006115710551F4911108C08091E80082FFDB
:1050C00035C080E00895BC01F2CF8091FA048823B6
:1050D000C9F18530C9F18091E80083FD31C080912C
:1050E000E80082FDEACF8091E80080FFE1CF809167
:1050F000F3002091F200382F6115710519F0283066
:10510000310558F091E02830310509F090E08091A8
:10511000E8008E778093E800CBCF84918093F100F4
:105120003196615071092F5F3F4FE6CF8091FA04AD
:10513000882341F0853041F08091E80083FFBDCFA6
:1051400081E0089582E0089583E00895982F9730D4
:1051500028F08F708093E90081E008959093E90032
:10516000242F762F50E0981731F07091EC002091A9
:10517000ED005091F00021FD02C09F5FE8CF30911B
:10518000EB003E7F3093EB003091ED003D7F30939C
:10519000ED003091EB0031603093EB007093EC0048
:1051A0002093ED005093F0002091EE0027FDE5CF15
:1051B00080E008958091FB0487FF13C08091E80090
:1051C00082FF06C08091E8008B778093E80004C0DE
:1051D0008091FA048111F2CF08958091FA04882316
:1051E000D9F38091E80080FFF8CF8091E8008E77B6
:1051F000ECCF2091E4003091E50095E6A9012091E3
:10520000EC00822F817020FF06C08091E80080FFB3
:1052100006C080E008952091E80022FD1AC0809128
:10522000FA04882389F0853089F08091EB0085FDB0
:105230000FC02091E4003091E50042175307F9F2C6
:105240009150E1F684E0089582E0089583E00895A6
:1052500081E008950E9498290E94A029E0EEF0E0E4
:10526000808181608083E8EDF0E080818F778083AA
:1052700019BCA7EDB0E08C918E7F8C9380818F7EDE
:1052800080831092F90408950F931F93CF93DF93B7
:105290000E9498290E94A029C8EDD0E088818F77CC
:1052A000888388818068888388818F7D888319BC02
:1052B0001092FA041092F6041092F8041092F70477
:1052C00000EE10E0F80180818B7F8083888181600F
:1052D000888342E060E080E00E94A628E1EEF0E0F2
:1052E00080818E7F8083E2EEF0E080818160808328
:1052F000808188608083F80180818E7F80838881AF
:1053000080618883DF91CF911F910F910895E8ED1F
:10531000F0E080818F7E8083E7EDF0E08081816026
:10532000808384E082BF81E08093F9040C94442957
:10533000E8EDF0E080818E7F80831092E200089596
:105340001092DA001092E10008951F920F920FB6AA
:105350000F9211242F933F934F935F936F937F93FB
:105360008F939F93AF93BF93EF93FF938091E1004F
:1053700082FF0BC08091E20082FF07C08091E100B4
:105380008B7F8093E1000E940F2C8091DA0080FFD8
:1053900019C08091D80080FF15C08091DA008E7FFF
:1053A0008093DA008091D90080FF96C080E189BDAA
:1053B00082E189BD09B400FEFDCF81E08093FA044B
:1053C0000E9484258091E10080FF19C08091E20055
:1053D00080FF15C08091E2008E7F8093E200809173
:1053E000E20080618093E2008091D8008062809327
:1053F000D80019BC85E08093FA040E94962580911C
:10540000E10084FF2BC08091E20084FF27C080E18F
:1054100089BD82E189BD89B5982F917080FFFBCF4E
:105420008091D8008F7D8093D8008091E1008F7E9D
:105430008093E1008091E2008F7E8093E200809172
:10544000E20081608093E2008091F604882309F4F1
:1054500049C084E08093FA040E9497258091E1007E
:1054600083FF29C08091E20083FF25C08091E10085
:10547000877F8093E10082E08093FA041092F60423
:105480008091E1008E7F8093E1008091E2008E7F29
:105490008093E2008091E20080618093E20042E02C
:1054A00060E080E00E94A6288091F00088608093F0
:1054B000F0000E949525FF91EF91BF91AF919F91D0
:1054C0008F917F916F915F914F913F912F910F90AD
:1054D0000FBE0F901F90189519BC1092FA040E94ED
:1054E000922570CF8091E30087FD93E09093FA04BA
:1054F000B3CF1F920F920FB60F9211242F933F93A9
:105500004F935F936F937F938F939F93AF93BF93CB
:10551000CF93DF93EF93FF93D091E900DF708091F9
:10552000EC00C82FC17080FDC0E81092E9008091A6
:10553000F000877F8093F00078940E94BD2A10923B
:10554000E9008091F00088608093F000CD2BCF704F
:10555000C093E900FF91EF91DF91CF91BF91AF919F
:105560009F918F917F916F915F914F913F912F917B
:105570000F900FBE0F901F9018951F93CF93DF933E
:10558000CDB7DEB7AA970FB6F894DEBF0FBECDBF7A
:105590008BEF94E02091F100FC012193CF01F5E025
:1055A00083309F07B9F70E94AC258091E80083FF04
:1055B0001EC18091FB049091FC049A3008F017C141
:1055C000E92FF0E0E355F24D0C94752C803899F0FA
:1055D000823809F00CC18091FF048F70873008F089
:1055E00006C18093E9008091EB0085FB882780F954
:1055F0001092E90006C08091F7049091F80491118F
:1056000082609091E800977F9093E8008093F1008A
:105610001092F1008091E8008E77E5C0882309F4AC
:10562000D3C0823009F0E3C08091FD048111D6C05F
:105630008091FF048F702FEF280F263008F0D7C01D
:105640008093E9002091EB0020FFC8C0933031F433
:105650008091EB0080628093EB00C0C09091EB00E2
:1056600090619093EB0021E030E001C0220F8A9519
:10567000EAF72093EA001092EA008091EB0088603C
:10568000EACF8111B4C01091FD041F778091E3002F
:105690008078812B8093E3008091E800877F80935E
:1056A000E8000E94DA288091E80080FFFCCF80911A
:1056B000E30080688093E30082E0111183E080932F
:1056C000FA0495C08058823008F091C08091FD04A2
:1056D0009091FE048C3D23E09207A1F583E08A833C
:1056E0008AE289834FB7F894DE01139620E03EE00A
:1056F00051E2E32FF0E050935700E49120FF03C004
:10570000E295EF703F5FEF708E2F90E0EA30C0F0CF
:10571000C7968D939D932F5F243159F74FBF80918A
:10572000E800877F8093E8006AE270E0CE0101968E
:105730000E94E9278091E8008B778093E80057C0AA
:10574000C096E7CF6091FF0470910005AE014F5FF6
:105750005F4F0E94DC26BC01892B09F448C0909160
:10576000E800977F9093E80089819A810E944728FA
:10577000E1CF8038E1F58091E800877F8093E800F1
:105780008091F6048093F10045CF811130C0909153
:10579000FD04923060F58091E800877F8093E800F7
:1057A0009093F6040E94DA288091F604882311F081
:1057B00084E005C08091E30087FDFACF81E080930B
:1057C000FA040E94982513C08091FD04813079F479
:1057D00081E0933009F080E08093F8041092E900B2
:1057E0008091E800877F8093E8000E94DA2880910A
:1057F000E80083FF0AC08091E800877F8093E8007B
:105800008091EB0080628093EB00AA960FB6F8942B
:10581000DEBF0FBECDBFDF91CF911F9108950895D8
:10582000CF938091FA048823A1F0C091E900CF7052
:105830009091EC00892F817090FD80E8C82B109228
:10584000E9008091E80083FD0E94BD2ACF70C093DB
:10585000E900CF910895AA1BBB1B51E107C0AA1F05
:10586000BB1FA617B70710F0A61BB70B881F991F01
:105870005A95A9F780959095BC01CD01089597FBA5
:10588000072E16F4009407D077FD09D00E942B2C28
:1058900007FC05D03EF4909581959F4F0895709533
:1058A00061957F4F0895A1E21A2EAA1BBB1BFD0133
:1058B0000DC0AA1FBB1FEE1FFF1FA217B307E407EF
:1058C000F50720F0A21BB30BE40BF50B661F771F47
:1058D000881F991F1A9469F7609570958095909527
:1058E0009B01AC01BD01CF010895EE0FFF1F059094
:1058F000F491E02D0994692796276927782787274F
:10590000782708958F929F92AF92BF92CF92DF92A5
:10591000EF92FF92CF93DF93EC01688179818A81C6
:105920009B81611571058105910521F464E279ED92
:105930008BE597E02DE133EF41E050E00E94302D00
:1059400049015A019B01AC01A7EAB1E40E944F2D25
:105950006B017C01ACEEB4EFA50194010E945D2DBA
:10596000DC01CB018C0D9D1DAE1DBF1DB7FF03C01B
:105970000197A109B04888839983AA83BB839F7745
:10598000DF91CF91FF90EF90DF90CF90BF90AF90DD
:105990009F908F9008950E94822C089580E091E05E
:1059A0000E94822C0895B0E0A0E0809300019093C3
:1059B0000101A0930201B09303010895DC01CB0122
:1059C000FC01F999FECF06C0F2BDE1BDF89A31960F
:1059D00000B40D9241505040B8F70895F999FECFA8
:1059E00092BD81BDF89A992780B50895A8E1B0E0ED
:1059F00042E050E00C94E02CDC01A40FB51F4150B4
:105A0000504048F0CB01840F951F2E910E940D2D20
:105A100041505040D0F70895262FF999FECF92BDFE
:105A200081BDF89A019700B4021639F01FBA20BD63
:105A30000FB6F894FA9AF99A0FBE08950396272F95
:105A40000E940D2D0E940C2D252F0E940D2D242F1C
:105A50000C940D2D0196272F0E940D2D0C940C2DCA
:105A6000052E97FB1EF400940E94472D57FD07D08A
:105A70000E94532C07FC03D04EF40C94472D5095F4
:105A80004095309521953F4F4F4F5F4F089590952A
:105A90008095709561957F4F8F4F9F4F08950E941D
:105AA000622DA59F900DB49F900DA49F800D911D18
:105AB00011240895B7FF0C944F2D0E944F2D821B87
:105AC000930B0895A29FB001B39FC001A39F700DD7
:105AD000811D1124911DB29F700D811D1124911DF6
